:020000040800F2
:10000000A00800200101000811570008155200083F
:100010000D57000889130008B968000800000000A7
:10002000000000000000000000000000496000081F
:10003000A513000800000000E5580008FD62000854
:100040001B0100081B0100081B0100081B01000820
:100050001B0100081B0100081B0100081B01000810
:100060001B0100081B0100081B0100081B01000800
:100070008D130008991300081B0100081B010008DC
:100080001B0100081B010008651200081B01000885
:10009000AD6800081B0100081B0100081B010008D7
:1000A0001B0100081B0100081B0100081B010008C0
:1000B000056300081B0100081B0100081B01000864
:1000C0001B0100081B0100081B0100081B010008A0
:1000D0001B0100081B010008A16800081B010008A3
:1000E0001B0100081B0100081B010008DFF80CD0F1
:1000F00000F0E0FE00480047D56B0008A008002093
:100100000648804706480047FEE7FEE7FEE7FEE7B1
:10011000FEE7FEE7FEE7FEE7FEE7FEE70163000815
:10012000ED000008A0F16101192900D820387047BE
:1001300040EA01039B0703D009E008C9121F08C069
:10014000042AFAD203E011F8013B00F8013B521EE9
:10015000F9D27047D2B201E000F8012B491EFBD260
:1001600070470022F6E710B513460A4604461946C2
:10017000FFF7F0FF204610BD30B5044600200346CF
:1001800000E05B1C934203D2E05CCD5C401BF8D0E6
:1001900030BD00000FB400B58DB010A909900B90D0
:1001A00000914FF0FF300A9000200C900548069017
:1001B000054807906A4609A80F9900F04DFD0DB05B
:1001C0005DF814FB750C0008930C00082DE9FF4F37
:1001D000087883B09946FF2805D0491C2D2804D003
:1001E0000024002008E000200BE00124F9E700EBE8
:1001F000800003EB4000491C0B78FF2BF7D104B1C2
:10020000404200230293147819461D462D2C01D03C
:100210002B2C04D1521C2D2C13D000240294AA465E
:100220001478FF2C0FD00A25A3FB057801FB05816C
:100230004FF0000C03FB0C11521CE3194AEB0101B7
:10024000EEE70124EAE7814453EA010002D019F500
:10025000C87F06DA03980021C0E9001107B0BDE8A5
:10026000F08F0025AE4E2F46DFF8B882184600F01A
:10027000E4FDCDE90001B9F1000002DAC9F10004A2
:1002800000E004460023A74A1AEB030B42EB045A92
:1002900012E0E00707D02A4633463846414600F0D0
:1002A000B4FA074688462A4633461046194600F0F7
:1002B000ACFA05460E466410002CEAD1DDE90001D7
:1002C000B9F1000F5A46534606DA00F010FB3A46E1
:1002D000434600F00CFB05E000F097FA3A4643462F
:1002E00000F093FA029A0AB181F00041039AC2E940
:1002F0000001B3E72DE9FF4F1F468DB0D7E9014656
:100300004FF0FF382E2045464FF000090B90B96999
:100310006D1C0E988847396A824688470028F6D1B6
:10032000BAF1FF3F0AD024F4D064002E11DDBAF1F7
:100330002B0F08D0BAF12D0F0BD102E0404611B0BF
:100340008DE744F48064B9696D1C0E988847824635
:10035000761E6946600501D52D2000E02B208DF822
:10036000000001F1010B0DF1200809E0B9696D1CD5
:100370000E98884782460F9844F40074761E0560F4
:10038000002E02DDBAF1300FF0D00B998A453ED134
:1003900044F0800406E00F99681CA9F1010944F4B7
:1003A00000740860B9696D1C761E0E9888478246F5
:1003B0003028F0D02BE00B998A4505D1200603D4D4
:1003C00044F08004761E18E0504606F0C9FE08B3DB
:1003D0000DF11302761EAAF1300044F40074934527
:1003E00006D20BF8010B200607D5A9F1010003E0A6
:1003F000200602D409F101008146A00502D50F991B
:10040000681C0860B9696D1C0E9888478246002EEA
:10041000D1DC53E0002E51DDBAF1650F02D0BAF104
:10042000450F4BD1A00549D5B9696D1C24F4407422
:10043000761E0E9888478246002E0CDD2B2804D0AD
:10044000BAF12D0F07D144F48074B9696D1C0E9870
:1004500088478246761EE00501D52D2100E02B213C
:1004600008F8011BCDF82C8021E00DF12901761E42
:1004700044F4007488450CD2AAF1300010F0FF005B
:1004800088F8000002D10B99884509D908F10108C4
:1004900006E0E00501D5244801E042F20F708146F4
:1004A000B9696D1C0E98884782460F980560002E2A
:1004B00004DD504606F054FE0028D6D1F9690E98A6
:1004C0008847FF208BF8000088F800000020069085
:1004D00007904B466A4608A906A8FFF777FEA005D5
:1004E00002D46FF001002AE714F0240F0AD0E007CD
:1004F00014D1DDE906123868031D3B600068C0E9CD
:1005000000120BE0DDE9060100F01CFB0146E007EC
:1005100004D13868021D3A600068016028460EE781
:10052000000014400000F03FF1D8FFFFF0B480EA73
:100530000102D40F4200B2EB410F02D2024608463C
:1005400011464A0042D0C30DDDB2C1F3C752AD1A05
:10055000202D35DAC1F3160141F4000204B15242F4
:10056000C5F1200602FA06F12A411044B3EBD05F30
:1005700023D0C4B1012DA0EBC35009DCF0BC4FF077
:10058000004202EAC352DBB200F5000000F09BBB60
:10059000400000F1807000EBC350A0F1807040EA91
:1005A000D170490009E0490841EAC071A0EBC3508D
:1005B00000F50000400800EBC350F0BC00F07ABB2F
:1005C0006142012202EB4101001BF6E7F0BC7047DB
:1005D00081F00041AAE780F00040A7E780EA01022D
:1005E00010B502F00043400022D04A001FD0010E97
:1005F00001EB1261C0F35600C2F3560240F4000052
:1006000042F40002A0FB022000047F39140400D051
:10061000401C50EA124001D44000491EC2B20C06F0
:1006200004EBD010401C4008802A02D003E00020D8
:1006300010BD20F00100002900DA0020184310BD91
:1006400030B480EA010202F0004530F0004221F0AF
:10065000004013D090B1C30DD40DC2F31601C0F306
:100660001600E41A41F4000140F400027D34914286
:1006700001D3641C00E04900002C02DA30BC0020E9
:1006800070474FF400000023914201D3891A0343BD
:1006900040084FEA4101F7D151B1914202D14FF0E8
:1006A000004105E002D24FF0010101E06FF00101CD
:1006B00003EBC450284430BC00F0FCBA2DE9FE4FD7
:1006C000804681EA0300C00F0C46009021F00041F3
:1006D00023F00045B8EB0200A94105D2404621466F
:1006E00090461C460B46024623F00040104347D07C
:1006F000270DC7F30A00C3F30A510290401A019074
:1007000040286BDAC3F3130040F4801B0098924634
:1007100020B10023D2EB030A63EB0B0B019859467F
:10072000C0F14002504600F070FA06460D465046B1
:100730005946019A00F078FA10EB08006141002454
:1007400087EA115284EAE7731A4340D0009A62B3F1
:10075000019A012A4FEA075215DC001B61EB0201E6
:100760004FF0004202EA0752CDE90042001C41F579
:10077000801132462B4600F012FB03B0BDE8F08F2B
:1007800040462146F9E7001B61EB0201001C41F5E0
:10079000801300185B412018A2F5001747EB0301F6
:1007A00040EAD570B6196D4111E06D084FEA360682
:1007B00045EAC0754FEA0752001B61EB0201001CBD
:1007C00041F5801149084FEA300000195141324685
:1007D0002B4603B0BDE8F04F00F0D2BA00980122DA
:1007E00040000023D0EB020263EBE0730098214647
:1007F0004FEAE074B8EB000061EB0401E9E783F035
:1008000000435BE781F0004158E72DE9FE4F81EAA4
:10081000030404F0004421F0004100944FF0000B69
:1008200023F0004350EA01045ED052EA03045BD097
:10083000C3F30A54C1F30A552C44A4F2F3340194CF
:10084000A0FB0254C1F3130141F48011C3F313035D
:1008500043F4801301FB024400FB034E840A970A11
:1008600044EA815447EA8357A4FB076802958D0A3E
:1008700005FB07854FEA932C04FB0C542705029DCA
:100880004FEA065847EA1637B5EB08056EEB070C3A
:10089000870E920E47EA811742EA8312A7FB0201F4
:1008A000B6EB0B0164EB00042B0D43EA0C335E182E
:1008B00044EB1C50DA465146E7FB0201C5F3130432
:1008C0004FEA0B3343EA14534FEA0432019C43EAE4
:1008D0000603A4F10C040294009CCDE900B400F0DE
:1008E0005EFA03B0BDE8F08F00200146F9E72DE97C
:1008F000F04D81EA030404F0004B21F0004514465A
:100900004FF0000A23F0004150EA050220D054EADB
:1009100001021DD0C5F30A570246C5F31303C1F304
:100920001300C1F30A5640F4801543F48013A7EB7B
:100930000608101BD64608F2FD3873EB050002D3FB
:1009400008F1010801E092185B41B8F1000F03DAE9
:1009500000200146BDE8F08D00204FF480110646CE
:1009600084460EE0171B73EB050705D3121B63EBE0
:10097000050306434CEA010C49084FEA300092187F
:100980005B4150EA0107EDD152EA030012D082EA3E
:10099000040083EA0501084305D0101BAB4106D2D1
:1009A0000122002306E000224FF0004302E06FF036
:1009B000010253101AEB06004CEB085110EB0A0031
:1009C00041EB0B01BDE8F04D00F0DAB9002801DB86
:1009D000C0F10040002901DBC1F10041814201D892
:1009E0000120704700207047002801DBC0F1004063
:1009F000002901DBC1F10041814201D20120704791
:100A000000207047002801DBC0F10040002901DB15
:100A1000C1F10041814201D301207047002070479D
:100A2000002801DBC0F10040002901DBC1F10041D9
:100A3000814201D90120704700207047002801DB66
:100A4000C0F10040002901DBC1F10041814201D128
:100A5000012070470020704730B5041E71F100047A
:100A600004DB4FF00044404264EB0101141E73F1BB
:100A7000000405DB1C464FF00043524263EB0403C5
:100A8000101A8B4101D2012030BD002030BDC10FB2
:100A900080EAE0700844CA079623002100F013B9E9
:100AA00096230022114600F00EB90EB540F23341F4
:100AB00002910021CDE900110A460B4600F06FF9C2
:100AC00003B000BD00F0004220F00040C10DC0F3B3
:100AD000160040F400007F2901DA002070479629B3
:100AE00003DCC1F19601C84001E096398840002A34
:100AF000F4D04042704720F00040C10DC0F3160012
:100B000040F400007F2901DA00207047962903DCB9
:100B1000C1F19601C840704796398840704700F08F
:100B2000004230F000400AD0C10D01F56071C0F301
:100B3000160042EA0151C2084007114370470020E5
:100B40000146704701F0004330B421F0004150EA03
:100B5000010206D00A0DA2F56072C1F31301002A4A
:100B600002DC30BC00207047440F44EAC104C100DD
:100B7000E01830BC00EBC25000F09CB830B50B461A
:100B8000014600202022012409E021FA02F59D42BD
:100B900005D303FA02F5491B04FA02F52844151E91
:100BA000A2F10102F1DC30BD2DE9F05F0546002025
:100BB00092469B4688460646814640241BE02846CE
:100BC00041464746224600F08DF953465A46C01A20
:100BD000914110D311461846224600F016F82D1AFE
:100BE00067EB01084F4622460120002100F00DF876
:100BF00017EB00094E41201EA4F10104DFDC48463A
:100C000031462A464346BDE8F09F202A04DB203ABD
:100C100000FA02F1002070479140C2F1200320FA4F
:100C200003F3194390407047202A06DBCB17203A84
:100C300041FA02F043EAE07306E041FA02F3D040E1
:100C4000C2F12002914008431946704702681144DE
:100C50001378016018467047D16004495161044916
:100C6000116200211161114600F052B94D0C0008CB
:100C7000050F0008426842B1016811F8013B23B139
:100C8000521EC0E90012184670470121C160881E3B
:100C9000704742685AB1C368016843B983688B42A0
:100CA00005D0491E521CC0E90012002070474FF0C9
:100CB000FF3070470029A8BF7047401C490008BF9B
:100CC00020F00100704710B4B0FA80FC00FA0CF07C
:100CD00050EA010404BF10BC704749B1CCF12004B4
:100CE00021FA04F411FA0CF118BF01212143084341
:100CF000A3EB0C01CB1D4FEA00614FEA102042BF6D
:100D0000002010BC704700EBC35010440029A4BF62
:100D100010BC7047401C490008BF20F0010010BC07
:100D20007047F0B4002802DCF0BC00207047C0F32C
:100D3000C751C0F3160040F40000CA0701D14000BB
:100D4000491E3F2202EB6105002211464FF40006C6
:100D500026FA01F31344D418844201D8001B1A4622
:100D60004000491C1729F3DD5100814202D24FF0A7
:100D7000FF3100E0002102EBC550F0BCFFF79ABF45
:100D800010B5141E73F1000408DA401C41F1000193
:100D900092185B411A4301D120F0010010BD2DE9EA
:100DA000F04D92469B4611B1B1FA81F202E0B0FAE1
:100DB00080F220329046FFF728FF04460F4640EAB3
:100DC0000A0041EA0B0153465A46084313D0114624
:100DD00053EA010019D0C8F14002504600F082F8F1
:100DE00005460E46504659464246FFF70EFF084359
:100DF00005D0012004E020463946BDE8F08D0020F2
:100E0000054346EAE0762C4337430A986305E40A33
:100E1000A0EB08000022FD0A44EA47540A3002D53C
:100E200000200146E9E7010510196941DDE908459F
:100E300000196941BDE8F04DA2E70EB540F233421A
:100E400002920022CDE900221346FFF7A8FF03B06B
:100E500000BDC1F30A52C1F3130140F2FF3341F464
:100E600080119A4202DA00200146704740F2334373
:100E70009A42A2F2334202DC524200F033B8FFF74A
:100E8000C4BE000030B5041E71F1000404DB4FF055
:100E90000044404264EB0101141E73F1000405DBC1
:100EA0001C464FF00043524263EB0403994208BFD3
:100EB000904230BD1CB50948009009480190054694
:100EC000009C06E0E06840F0010394E807009847C2
:100ED0001034AC42F6D3FFF70DF90000D0810008C2
:100EE000F0810008202A04DB203A21FA02F00021D8
:100EF000704721FA02F3D040C2F12002914008432A
:100F000019467047C0B24FF4F05100F097B9000095
:100F10002DE9F34F8BB04FF0000801F10C000C46A7
:100F20004FF0010B46460DF1080A0190626901215C
:100F300001989047051E2DD0252D2CD0216A884779
:100F4000C0B16269012101989047216A8847002851
:100F5000F7D1411E62690198904700E0761CA169B3
:100F60000B988847216A88470028F7D1E1690B98D8
:100F70008847DBE7A1690B9888470746A84201D15B
:100F8000761CD3E7E1690B9888477F1C02D1B8F142
:100F9000000F6FD046E1002762693D46394601984F
:100FA00090472A2804D162690121019890470125C0
:100FB000DFF884926269012101989047A0F1300125
:100FC0000A290AD24F45E5DC07EB870100EB410710
:100FD000303FDFD445F01005ECE7E90601D46FF0AF
:100FE00000476C280AD04C2814D0682815D06A28ED
:100FF0000DD074281CD07A281AD01DE06269012116
:10100000019890476C2802D045F0040514E045F0A3
:1010100002050DE045F020050AE062690121019812
:101020009047682802D045F0080505E045F40065C2
:101030006269012101989047C4E9015765283DD0B4
:1010400019DC58287AD00CDC452837D004DC252858
:1010500026D0412831D131E046282FD047282CD145
:101060002CE05B2877D0612828D063287CD06428C6
:1010700023D15AE0D0E06F2848D008DC66281DD084
:1010800067281BD0692821D06E2816D127E0702848
:1010900045D0732868D0752847D078280DD14DE009
:1010A000A1690B988847054625283FF469AFE16997
:1010B0000B9888476D1C3FF46AAFB3E023466A463D
:1010C0006FF001000B99FFF715F99EE045F0400025
:1010D0006060A80723464FF0000236D43EE0E807E0
:1010E0007FF447AF2068011D21600068290501D504
:1010F00006701BE7290701D5068017E7A90703D566
:10110000F117C0E9006111E706600FE745F0400004
:101110006060A80723464FF0080216D41EE040F690
:101120000E0125EA0100606016E045F040006060B5
:10113000A80723464FF00A0207D40FE045F040000D
:101140006060A80708D5234610226FF001000B99B4
:10115000AFF3008059E007E0234610226FF0010052
:101160000B99AFF3008050E04FF000094F464B461B
:10117000632802D05B2806D040E0E80601D40120B5
:10118000A06001273AE062690121019890475E283A
:1011900005D14FF0010962694946019890472169DC
:1011A00039B900210A46534643F82120491C082931
:1011B000FADBB0B3216969B9C11700EBD1625311F1
:1011C0000AEB830122F01F02821A01200B68904073
:1011D00003430B6062690121019890475D28E8D1C3
:1011E000B9F1000F09D00020514651F82020D24318
:1011F00041F82020401C0828F7DB02AB224600976C
:101200006FF001000B99AFF3008000280CDA401C4E
:1012100008D1BBF1000F05D04FF0FF300DB0BDE895
:10122000F08FFFE74046F9E7E90701D108F101082F
:1012300006444FF0000B79E6CCCCCC0C7F2801D9CA
:10124000002208E0064A02EB5002C007127800D1E3
:10125000120902F00F020120904008407047000080
:10126000E078000880B540F24C10C2F2000000F0B7
:101270005FFE40F27C10C2F20000BDE8804000F04A
:1012800057BE0000B0B5044600688168C90709D0A0
:10129000816821F00101816001F0FEFE216889680A
:1012A000C90701D10020B0BD054602E08068C00733
:1012B000F8D001F0F1FE411B20680329F6D38168C4
:1012C000C907F3D0A06A40F01000A062E06A40F0C5
:1012D0000100E0620120B0BDB0B582B0044600203C
:1012E000019021688A68D2074BD1886840F00100DC
:1012F000886040F21800C2F2000000684DF6836179
:10130000C4F21B31A0FB0101880C01900198A0B12F
:10131000019801380190019878B101980138019045
:10132000019850B1019801380190019828B10198B5
:101330000138019001980028EAD101F0ADFE216842
:101340008968C9071CD1054603E000BF8068C00753
:1013500016D101F0A1FE411B20680329F6D3816854
:10136000C907F3D1A06A40F01000A062E06A40F023
:101370000100E062002084F82400012002B0B0BD2A
:10138000002002B0B0BD0000FEE7000040F2A42043
:10139000C2F2000001F0F4BB40F2E820C2F200000B
:1013A00001F0EEBB7047000010B540F6DB71CCF2E7
:1013B00049010446FFF726FB20B940F6DB71C4F271
:1013C000C9010BE040F6DB71C4F249012046FFF78A
:1013D000FDFA38B940F6DB71CCF2C9012046FFF7BF
:1013E000A5F80446204610BDEFF3108072B600BF8A
:1013F000FEE700002DE9F04101F04EFE40F2CC077F
:10140000C2F2000739790446002961D07979B868B9
:1014100000223A7102220329BA7479744CD002294D
:1014200020D0012940F0988040F25008C2F2000814
:10143000032188F800104FF040410546FFF7D4FA29
:10144000002818BF4FF0404528464FF080414FF02C
:101450008046FFF7C9FA002808BF354628464FF0F6
:101460007C5120E040F25008C2F20008012188F8C7
:1014700000100021CCF2F0210546FFF7B5FA002656
:10148000C4F2F02600281CBF0025CCF2F025284627
:101490003146FFF7A9FA40F6DB71002808BF354650
:1014A000C4F2C9012846FFF799F8C8F80400B87CCF
:1014B000022810D04EE000BF40F2500542F6E16134
:1014C000C2F20005C4F265212A70FFF787F8686050
:1014D000B87C02283ED1F868201A652838BFBDE8DC
:1014E000F08140F25000C2F2000000240470446019
:1014F00040F2AC10C2F200008462C0E90344C0E9CB
:101500000544C46140F24820C2F200008462C0E990
:101510000344C0E90544C46140F21420C2F2000053
:101520008462C0E90344C0E90544C46140F2E010AC
:10153000C2F200008462C0E90344C0E90544C4610A
:1015400000200021002204F063F9B86ABC74013065
:101550003C74B862BDE8F08140F25001C2F2000173
:1015600000200870486040F2AC11C2F200018862AD
:10157000C1E90300C1E90500C86140F24821C2F297
:1015800000018862C1E90300C1E90500C86140F2B9
:101590001421C2F200018862C1E90300C1E905001B
:1015A000C86140F2E011C2F200018862C1E90300A3
:1015B000C1E90500C8610021002204F029F9B87CC6
:1015C000022888D0C6E7000010B58AB040F2CC00EF
:1015D000C2F200000024C0E90144C0E90344C0E9AC
:1015E0000544C0E90744C0E9094440F25000C2F292
:1015F00000000470446040F2AC10C2F2000084624B
:10160000C0E90344C0E90544C46140F24820C2F285
:1016100000008462C0E90344C0E90544C46140F2AB
:101620001420C2F200008462C0E90344C0E905440A
:10163000C46140F2E010C2F200008462C0E90344D9
:10164000C0E90544C46100200021002204F0E0F854
:101650000120079044F2202108900E20CDE90014CB
:101660004FF6E071099040F27C20CDE90214C2F2FD
:1016700000006946CDE90544049400F043FE08B13A
:101680000AB010BD40F27C20C2F2000001F0BCF9AB
:101690000028F5D140F27C20C2F2000048F202415D
:1016A00000F0C6FD0AB010BD40F2CC00C2F200004E
:1016B00000210171012181747047000070B58AB06A
:1016C0000026099601F0E8FC40F2CC04C2F20004C6
:1016D0002168411A0A2938D340F23001C2F20001D0
:1016E0000A68254640F6DB7145F8240BC4F2C901AF
:1016F0001046FEF7A5FF40F23401C2F2000109686E
:10170000CDE90666CDE9020140F29120CDE904065B
:101710000820089040F27C20C2F200008DF824607E
:1017200000F00EFF70B140F27C20C2F2000004A96C
:1017300002AA01AB00F094FD04F12405002808BFC3
:1017400004F120052868013028600AB070BD00004F
:1017500040F2CC00C2F200000023037183740374D2
:1017600040F25000C2F200000370436040F2AC103F
:10177000C2F200008362C0E90333C0E90533C361EC
:1017800040F24820C2F200008362C0E90333C0E99E
:101790000533C36140F21420C2F2000040F2E01CA5
:1017A0008362C0E90333C0E90533C361C2F2000CB0
:1017B000002000210022CCF82830CCE90333CCE90A
:1017C0000533CCF81C3004F023B8000070B582B0AB
:1017D00004460020019094F82400012802D1022040
:1017E00002B070BD012084F824002046FFF74AFDB6
:1017F0002046FFF771FD28B1002184F8241002B0C3
:1018000070BD00BF0646A06A41F202118843023053
:10181000A06240F21800C2F200000568022001F048
:10182000F7FCB5FBF0F0400001900198A8B100BFB3
:10183000019801380190019878B101980138019020
:10184000019850B1019801380190019828B1019890
:101850000138019001980028EAD12068816841F0A0
:101860000801816001F018FC21688A6812070FD412
:10187000886840F00400886001F00EFC21688968E7
:10188000490715D401216FF00302304622E000BF62
:10189000054602E088680007EAD501F0FDFB401B21
:1018A00021680B28F6D388680007F3D50EE000BF47
:1018B000054602E080684007E4D501F0EDFB411BDE
:1018C00020680B29F6D381684907F3D50120102140
:1018D0006FF01202A36A1A401143A162002184F83A
:1018E000241002B070BD00002DE9F04181B000224B
:1018F000009290F82420012A06D14FF0020E704683
:1019000001B0BDE8F08100BF8368D1F804C00122B6
:1019100080F82420D3B1D1F810E00368BCEB0E04AA
:1019200004EB84049D6B04F10F044FF01F0202FAD4
:1019300004F225EA020222F440151BD99D634FF000
:10194000000E9A68D2072BD123E000BFBCF1010F33
:1019500040F0948003684FF0000E9A6B0D686FF3AF
:10196000150242EAC5329A634FF0010C9A68D20719
:101970000FD015E000220E68CFF6F07202EB0E5287
:10198000A64032432A439A634FF0000E9A68D2076A
:1019900006D19A6847F201048D69A2432A439A60EE
:1019A0004D7D03F10408012D00F128022AD18E6932
:1019B0002027B6F5E04F164614BF4FF0010E4646FD
:1019C00008BF4FF4806734683C4334600C7D012CC1
:1019D0001BD00A68092A02EB420427D9DD681E3CA5
:1019E00007268F68A640B54307FA04F42C4322F07B
:1019F0000105102DDC6022D19C6844F400049C6039
:101A000001241DE00C7D012CE3D12024002D14BF06
:101A10004FF0010E424608BF4FF4805415682C4326
:101A200014600A68092A02EB4204D7D81D69072608
:101A30008F68A640B54307FA04F42C431C610024C8
:101A4000ACF1010720251426032F38BF06EB8705CC
:101A50005F5940F6FF76C968B7433943002C5951A6
:101A600048D042F20041C4F201018B4212D0816A97
:101A70004FF0010E41F0200181623BE00368826A71
:101A80004FF0010E42F0200282629A68D2073FF4C2
:101A900080AF85E7896809022CD49968102A41F43F
:101AA0000001996026D140F21801C2F200010968D4
:101AB0004DF68362C4F21B32A1FB0212910C01EBC2
:101AC0008101490000910099A1B10099013900916B
:101AD000009979B1009901390091009951B10099AB
:101AE00001390091009929B10099013900910099BB
:101AF0000029EAD1002180F82410704601B0BDE829
:101B0000F08100002DE9F04381B0006842F200410D
:101B1000C4F20101884203D001B0BDE8F08300BFE8
:101B200040F24C14C2F200042046012100F012F9E8
:101B300040F2F809C2F20009A9F8020004F13000ED
:101B4000012100F007F90546B9F80200A9F8045090
:101B5000FEF7ABFF46F26666C4F20A064FF0663245
:101B60003346FEF752FE4FF60067C4F2AF0700227D
:101B70003B46FEF7BCFEFEF7E5FF0446C9F80C0045
:101B8000A8B2FEF792FF4FF066323346FEF73DFEF5
:101B900000223B46FEF7ABFEFEF7D4FF0546D9F820
:101BA00014002146C9F81050FEF7C0FC0646D9F8CB
:101BB00018002946C9F81460FEF7B8FCB9F80610F9
:101BC000C9F8180001318AB2642AA9F806101DD399
:101BD00099F80010D1B9002140F20008A9F80610C8
:101BE0000121C4F2C82889F8001007463046414652
:101BF000FEF726FD0646C9F81C0038464146FEF7AA
:101C00001FFD0746C9F8200002E000BFD9E90767B9
:101C100020463146FEF7DCFC0446C9F8240028467D
:101C20003946FEF7D5FC0546C9F82800204621466E
:101C3000FEF77CFC0446C9F82C0028462946FEF72E
:101C400075FC4CF63A51C3F69371C9E90C04FEF7E2
:101C5000C5FC4CF63A510546C3F613712046FEF713
:101C6000BDFC2946FEF762FC40F2AC01C2F2000165
:101C70000B68C9F8380009F13C0109F14002184627
:101C800004F071FED9E90D86D9E90F57304629468F
:101C9000FEF7A4FC044640463946FEF79FFC214669
:101CA000FEF744FCC9F8440030463946FEF796FC7E
:101CB000044640462946FEF791FC01462046FEF7C1
:101CC00087FC40F20404C2F200046268D9F84C10A8
:101CD000C9F8480003F0A0FAD9F844302268D9F8CE
:101CE0005010C9F84C00184603F096FAC9F8500095
:101CF000FFF780FB40F25001C2F200010878032890
:101D00001AD002280CD001287FF406AF496840F2AF
:101D1000AC10C2F2000001B0BDE8F04304F0C4BA58
:101D200040F2AC10C2F200004968343001B0BDE8A6
:101D3000F04303F0D9BD00BF40F21420D9F80830B9
:101D40004968C2F2000000F1340201B0BDE8F0437E
:101D500004F0DEBA006802393C234022032938BF70
:101D600002EB8103C058704710B5044690F8240078
:101D7000012804BF022010BD012084F82400204661
:101D8000FFF7AAFA20B1002184F8241010BD00BF8B
:101D900042F204422168A06AC4F2010243F2010344
:101DA000984302F57F7300F580509942A06203D0FA
:101DB000A06A20F4801006E0106810F4702FF7D0AD
:101DC000A06A40F48010A062A06AC0055CBF002039
:101DD000E062002084F824006FF004040C604C687A
:101DE000640548BF10BD886800F4E040B0F5E04FDE
:101DF0000CD1994206D0886840F402108860002017
:101E000010BD00BF106810F4702FF4D0886840F443
:101E100000408860002010BD10B5044690F82400F2
:101E2000012804BF022010BD012084F824002046B0
:101E3000FFF752FA20B1002184F8241010BD00BF32
:101E400042F204422168A06AC4F2010243F2010393
:101E5000984302F57F7300F580509942A06203D049
:101E6000A06A20F4801006E0106810F4702FF7D0FC
:101E7000A06A40F48010A062A06AC0055CBF002088
:101E8000E062002084F824006FF004040C604C68C9
:101E900044F080044C604C68640548BF10BD8868FD
:101EA00000F4E040B0F5E04F0CD1994206D08868CC
:101EB00040F402108860002010BD00BF106810F4CC
:101EC000702FF4D0886840F400408860002010BD76
:101ED00090F82420012A04BF02207047026893680A
:101EE000DB070AD142F2004CC4F2010CDCF80834E2
:101EF000624508BF13F001030AD0816A41F0200156
:101F000081620121002280F824200846704700BF2A
:101F1000DCF80430096823F4702319435160002170
:101F2000002280F824200846704700007047000017
:101F300070B50446006805684668B10627D515F0F7
:101F4000020124D0A16AC90603D4A16A41F4007138
:101F5000A162816801F46021B1F5602F10D1217B6D
:101F600071B9416821F020014160A06A20F48070BD
:101F7000A062A06AC00403D4A06A40F00100A0627D
:101F80002046FFF7D3FF20686FF012010160310691
:101F900033D515F0040130D0A16AC90603D4A16A73
:101FA00041F40051A162816801F4E041B1F5E04FD4
:101FB00010D1416821F080014160A06A20F4805076
:101FC000A062A06AC00511D4A06A40F00100A0621E
:101FD0000CE000BF4168490508D4816801F4602124
:101FE000B1F5602F02D1217B0029E2D02046FFF716
:101FF00089FD20686FF00C01016070060ED515F0A8
:10200000010008BF70BDA06A40F48030A062204685
:1020100000F0B2F820686FF00101016070BD0000AF
:10202000002804BF01207047B0B50446806A28B17B
:1020300021688868C0070CD115E000BF0020E0626D
:1020400084F82400204600F099F821688868C007C9
:1020500009D0886820F00100886001F01DF821682F
:102060008A68D20726D1A06AC0063AD4A06A41F293
:10207000021290430230A062E069D4E9013240EAE2
:10208000030C531EB3FA83F35D091346B2F5807F48
:1020900018BF2B02207D257B01284CEA45002CD15E
:1020A00035B3A56A45F02005A562E56A45F001054E
:1020B000E56222E0054602E08868C007D3D000F060
:1020C000EBFF401B21680328F6D38868C007F3D0D4
:1020D000A06A40F01000A062E06A40F00100E062F7
:1020E000A06AA06A40F01000A0620120B0BD00BF4D
:1020F000A56903EB4533A3F5C0534D68B2F5807F66
:1021000025F4694543EA05034B608B684FF2FD7582
:10211000CFF6E17503EA050343EA00038B6001D0C3
:10212000012A07D122690023CFF6F07303EB025294
:1021300001E000BF0022CB6A23F470031A43CA6295
:10214000896840F6FE62CFF61F721140814207D1C6
:102150000020E062A16A012262F30101A162B0BD28
:10216000A06A40F0100020F00200A062E06A40F097
:102170000100E0620120B0BD7047000080B586B06C
:10218000006842F60001C4F2010188424FF00001EC
:10219000CDE90411CDE902111ED042F20041C4F292
:1021A0000101884241D141F21800C4F202000168E5
:1021B00041F400710160016801F40071019101991D
:1021C000016841F004010160006800F00400019022
:1021D0000198012017E000BF41F21800C4F202008C
:1021E000016841F480610160016801F4806101913E
:1021F0000199016841F004010160006800F00400E9
:1022000001900198022002900320039040F6000004
:10221000C4F2010002A900F029FE122001210022CF
:1022200000F0BAFF122000F0A5FF06B080BD00004C
:1022300090F82020013A012A08D8006800F1140221
:102240000020136819431160704700BF00F1240299
:1022500001204FF48021136819431160704700007A
:1022600010B590F820E0D0F800C0AEF1010EBEF13C
:10227000010FDCF808E011D81EF0E05F18D0CEF3B3
:1022800001640120A04018608B68DBB1D1F804E044
:10229000C86840EACE0040EA030E17E000F12403CC
:1022A00001204FF480211A681143196010BD00BF4E
:1022B00000F1240301204FF400111A681143196042
:1022C00010BD00BF0868CB6843EA405E0CF5C070E3
:1022D00000EB0413240140F804E00C69184640F8B0
:1022E000044F097D012903D1016841F48071016027
:1022F00050680121D8601068986000201A68114366
:10230000196010BD026890F82030013B012B29D8DC
:10231000B0B5D2F80002012340F00100C2F800027B
:10232000D1F814E0CC690EF01F0003FA00F0D2F8E7
:102330001C326FEA000C8343012CC2F81C3217D008
:102340006CBBD2F80C3203EA0C03C2F80C32CB6837
:102350008C8844EA034302EBCE04C4F840320B46B7
:1023600015E000BF416A41F48021416201207047BD
:10237000D2F80C320343C2F80C320B688C8844EA62
:10238000034302EBCE04C4F8403201F10C038D6824
:102390001B8802EBCE0443EA0543C4F84432D2F86A
:1023A00004328C6943EA0005D1F810E0096A002C78
:1023B00008BF03EA0C05C2F80452D2F81432BEF189
:1023C000000F43EA000408BF03EA0C040129C2F825
:1023D000144204D1D2F81C120843C2F81C02D2F8ED
:1023E000000220F00100C2F800020020B0BD000091
:1023F000006846F20041C4F20001884218BF7047ED
:1024000040F2CC00C2F20000C1690131C1617047E5
:10241000B0B590F82040013C012C7DD8D0F800C028
:1024200000290CBFDCF80C40DCF81040A4077DD07C
:102430000CF5D8754FEA011C55F80C4014F0040453
:10244000946055F80CE005EB011C19BF4FEADE055E
:1024500055604FEA5E551560DCF80050E64605F021
:102460000205D5605EF8044F24075ABFDEF800402D
:1024700004F00F0408241461DEF800400029C4F3BE
:1024800007249461DEF800504FEA15455561DCF8E9
:1024900008201A70026802EB0112D2F8B8214FEA44
:1024A00012225A70026802EB0112D2F8B8214FEAE8
:1024B00012429A70026802EB0112D2F8B8214FEA78
:1024C0001262DA70026802EB0112D2F8BC211A71B2
:1024D000026802EB0112D2F8BC214FEA12225A71B3
:1024E000026802EB0112D2F8BC214FEA12429A7143
:1024F000026802EB0112D2F8BC214FEA1262DA71D3
:1025000000680CBF00F10C0100F110010020202236
:102510000B681A430A60B0BD00F1240101204FF49A
:1025200080220B681A430A60B0BD00BF00F124018D
:1025300001204FF400120B681A430A60B0BD00007E
:1025400090F820100139012984BF002070470068ED
:10255000816882688068C1F38061C2F3C0621144FF
:10256000C0F30070084470472DE9F04F81B0044675
:1025700000684669D0F804908768D0F80CB0D0F8AD
:1025800010A0D0F81880F10704D1002530071DD421
:1025900024E000BFF90710D00121BA07816009D4F7
:1025A000780700F1AF80380700F1B680204600F0D0
:1025B00059FA02E0204600F057FA0025F80500F12C
:1025C0008780F80300F1B180300707D51BF01000B9
:1025D00004D0206845F400751021C160700708D54B
:1025E0001BF0080005D020680821C160204600F0DB
:1025F000ADF9B00706D52068C068800702D0204634
:1026000000F0A6F9700607D51AF0100004D0206873
:1026100045F4806510210161B00608D51AF0080064
:1026200005D0206808210161204600F0E7F9F00696
:1026300006D520680069800702D0204600F0E0F946
:10264000B00308D519F0100005D0206810214160B2
:10265000204600F0D7F9F00308D519F0080005D09E
:10266000206808214160204600F008FA300440F15B
:102670009B805FEA497040F1948006F4807008EA1C
:10268000102028435FEA8871014648BF41F00201EB
:10269000B20558BF01465FEA48700D4648BF45F095
:1026A0000405700558BF0D46300540F17A8018F0DA
:1026B000700000F076801038000905286CD8DFE83B
:1026C00000F003655D61596945F0080564E000BFED
:1026D00020684FF48071BA0581600BD4780515D459
:1026E00038051DD4204600F0C1F9F8037FF56CAF22
:1026F0001BE000BF204600F0BBF9F8037FF564AF94
:1027000013E000BF4FF4006558E700BF05F5005522
:10271000F8037FF559AF08E04FF480554EE700BF4E
:1027200005F58045F8037FF54FAF20684FF4803101
:10273000BA0381600AD4780310D4380314D4204635
:1027400000F098F930073FF541AF47E7204600F029
:1027500093F930073FF53AAF40E700BF05F5004574
:1027600030073FF533AF39E705F5803530073FF5E2
:102770002DAF33E745F080050EE000BF45F02005A2
:102780000AE000BF45F0400506E000BF45F0100537
:1027900002E000BF45F480752068816921F0700176
:1027A000816120680421416055B1606A40EA0501F9
:1027B0002046616201B0BDE8F04FFFF719BE00BFCF
:1027C00001B0BDE8F08F0000002804BF0120704771
:1027D000B0B5044690F8200010B9204600F06EF81D
:1027E0002068016841F00101016000F055FC0546D8
:1027F00020684168C90705D100F04EFC401B0B283A
:10280000F6D310E0016821F00201016000F044FC01
:10281000054600BF2068416889070DD500F03CFCE3
:10282000401B0B28F6D3606A052140F4003060623B
:10283000012084F82010B0BD217E0268012922F019
:10284000800208BF80320260617E0268012922F0A6
:10285000400208BF40320260A17E0268012922F0D6
:10286000200208BF20320260E17E0268012922F0C6
:10287000100218BF10320260217F0268012922F085
:10288000080208BF08320260617F0268012922F055
:10289000040208BF04320260D4E901C2D4E903355E
:1028A00061691A432A431143ACF101021143C1612A
:1028B00000200121606284F82010B0BDB0B586B060
:1028C00040F60004C4F201040068A4F5244200218B
:1028D00090420591CDE90311029101D006B0B0BD3F
:1028E00041F21800C4F20200426802AD42F00072E8
:1028F0004260426802F000720192019A026842F05E
:1029000004020260006800F00400019001984FF496
:102910000060CDE9020104912046294600F0A6FAA4
:102920004FF480500290022003900320059020462F
:10293000294600F09BFA14200021002200F02CFC14
:10294000142000F017FC06B0B0BD00007047000076
:10295000B0B58AB0016840F2CC0546F20042C2F23E
:102960000005C4F20002914205F11C0405D103AA3E
:1029700001AB0021FFF74CFD20B120680130206041
:102980000AB0B0BD05980028F7D106980028F4D108
:10299000039840F211218842EFD107980828ECD122
:1029A0009DF805000128E8D19DF804000328E4D82B
:1029B0009DF806109DF807209DF8083001449DF809
:1029C00009C0114419449DF80A20614411440131A1
:1029D0009DF80B20C9B25140FF29CED1DDF8061079
:1029E0006871A96000F058FBE86001202871E9686F
:1029F00005F1180469612874BFE700007047000002
:102A00007047000070470000B0B5044690F8200001
:102A100001281DD1022084F820002068016821F0DF
:102A20000101016000F038FB054600BF20684068E6
:102A3000C00713D000F030FB401B0B28F6D3606AB0
:102A400040F400306062052084F820000120B0BD11
:102A5000606A40F4002060620120B0BD0020606226
:102A6000B0BD0000704700007047000070470000D4
:102A7000704700007047000070470000704700007A
:102A8000014690F82100022816D10868D1E90FC349
:102A9000026822F00E020260026822F00102026067
:102AA000012000FA03F2CCF8042081F82100002074
:102AB000002281F820207047042088630120002232
:102AC00081F820207047000090F82110022923D1BE
:102AD000026840F2040C1168C4F2020C21F00E01ED
:102AE000116013682F21C4F202018A4223F001030E
:102AF000136015DD3023C4F202039A421CD0442334
:102B0000C4F202039A421BD05823C4F202039A4231
:102B10001CD14FF4803321E00421816301207047F0
:102B20000823C4F202039A420ED01C23C4F202030B
:102B30009A420BD1102311E04FF480730EE000BFD6
:102B40004FF480530AE000BF012307E00CF1680155
:102B50004FF080738A4208BF4FF480130121CCF8F4
:102B6000003080F82110416B0022002980F82020DD
:102B700004BF0020704780B58847002080BD00005A
:102B800010B5D0E90FCE0168DCF800300A6823FAEE
:102B90000EF35C072AD512F0040427D00A689206C7
:102BA00003D40A6822F004020A602F22C4F202024F
:102BB000914240F20402C4F202025BDD3023C4F20F
:102BC0000203994272D04423C4F20203994273D0A3
:102BD0005823C4F20203994240F07A804FF48023D4
:102BE0001360C16A002940F098806FE09C0727D5E8
:102BF00012F0020424D00A68920606D40A6822F071
:102C00000A020A60012280F821202F22C4F2020267
:102C1000914240F20402C4F202023BDD3023C4F2CE
:102C20000203994260D04423C4F2020399425FD068
:102C30005823C4F20203994260D14FF4003365E097
:102C40001B0743D512F0080208BF10BD0A6822F026
:102C50000E020A60012101FA0EF2CCF80420816311
:102C600080F82110016B0022002980F8202054D127
:102C70002CE000BF0823C4F20203994222D01C2397
:102C8000C4F20203994223D140231360C16A002990
:102C900043D11BE00823C4F2020399422CD01C2329
:102CA000C4F20203994229D120232FE04FF480631C
:102CB0001360C16A89BB09E04FF480431360C16AA5
:102CC00059BB03E004231360C16A31BB10BD00BFD0
:102CD00002F168044FF08063A14208BF4FF4800303
:102CE0001360C16AC9B9F1E74FF400730EE000BF89
:102CF0004FF400530AE000BF022307E002F168042A
:102D00004FF00073A14208BF4FF400131360816AB3
:102D10000022002980F82020D8D0BDE810400847C4
:102D2000014600284FF0010008BF70472DE9F0432D
:102D3000D1F800C04FF6F873CBF6FD734CF6CD42D8
:102D40006344CCF6CC42A3FB02236FF0030202EAF9
:102D500093020023C4F2020301F10C08C1E90F320F
:102D60000222D1E9019E98E8F00181F82120DCF8E7
:102D7000002043F6F0739A4342EA090242EA0E0247
:102D800022432A4332433A4342EA0802CCF8002065
:102D900000228A6381F8210081F820200020BDE80C
:102DA000F043704790F820C0BCF1010F04BF02202F
:102DB0007047F0B54FF0010E80F820E090F821C088
:102DC000BCF1010F26D14FF0020C80F821C04FF06A
:102DD000000CC0F838C0D0E900C4C56AC66BDCF886
:102DE0000070102C27F00107CCF80070006C0EFA70
:102DF00000F070600846CCF8043004BF10460A4664
:102E0000CCF80800CCF80C20DCF8000045B140F00C
:102E10000E000DE0002180F820100220F0BD00BF60
:102E200020F00400CCF80000DCF8000040F00A00BC
:102E3000CCF80000DCF8000040F00100CCF8000005
:102E40000020F0BDB0B5044600F026F9054640F27A
:102E50000C00C2F200000078611C18BF044400BFDF
:102E600000F01AF9401BA042FAD3B0BD2DE9F04F93
:102E700082B00E68002E00F0FD8041F20042C4F2E4
:102E80000102042340F2004E904208BF03234FF694
:102E9000FF7CC4F2010E009300240123C1F2100C48
:102EA0004FF0000A4FF000094BE000BF41F2000272
:102EB000C4F20102009F904208BF022704F00C03F5
:102EC0000F229A402BEA020207FA03F34FEA9A050F
:102ED0001A4346F825204E6840F20C45F202DEF80F
:102EE000082054BF22EA080242EA0802C4F201059F
:102EF000CEF808202A68B30254BF22EA080242EA48
:102F000008022A60B303DEF8042054BF22EA080254
:102F100042EA0802F303CEF80420DEF800204FF066
:102F2000010354BF22EA080242EA0802CEF8002058
:102F30000E680AF1010A36FA0AF204F1040400F0FC
:102F4000998003FA0AFB16EA0B08F1D04E68664531
:102F500012DC122E56D8DFE806F0350B4D495555D8
:102F6000555555555555555555555545510000BF65
:102F7000D1F80C9046E000BF4FF6FF72C1F221027B
:102F800096420FDC0022C1F2110296421AD00022B2
:102F9000C1F21202964215D00022C1F221029642DD
:102FA00010D02FE00022C1F2220296420AD0002265
:102FB000C1F23102964205D00022C1F2320296429D
:102FC00020D100BF8A684AB1012A14BFC0F814B0EA
:102FD000C0F810B04FF0080914E000BF4FF004092A
:102FE00010E000BFCA6802F104090BE04FF00009CD
:102FF00008E000BFCA6802F1080903E0CA6802F1EC
:103000000C0900BF02462646B8F5807F24BF043273
:10301000203E17680F25B54027EA050509FA06F690
:1030200035431560CA79D2067FF582AF41F21803A5
:10303000C4F202031A68AEF57E7642F001021A600D
:103040001A6802F001020192019A2AF0030256F86E
:1030500002B040F60002C4F20102904208D040F6ED
:103060000042C4F2010290427FF420AF012725E71D
:10307000002723E702B0BDE8F08F0000C26802EA33
:103080000103914341EA034101617047002A08BFEF
:10309000090401617047000040F29C40C2F2000048
:1030A0000068704740F20C0040F29C41C2F2000000
:1030B000C2F2000100780A681044086070470000FE
:1030C00080B542F20000C4F20200016841F0100134
:1030D0000160032000F08CF80F2000F005F800F0EC
:1030E00027F8002080BD000070B540F20C06C2F247
:1030F000000640F218013278C2F200014FF47A73F0
:103100000968B3FBF2F20446B1FBF2F1084600F0A5
:103110005FFE0F2C4FF0010508D838B94FF0FF3093
:1031200021460022002500F037F87460284670BD63
:1031300082B041F21800C4F202000168022241F09C
:1031400001010160016801F00101019101994168EB
:1031500041F080514160406800F08050009000983C
:103160000420C4F20100016862F31A61016002B038
:1031700070470000002848BF704700F01F0101227F
:1031800002FA01F11C2202EAD0004EF20012CEF245
:10319000000281507047000010B54EF60C5CCEF274
:1031A000000CDCF80030C3F3022E8EF00704042C70
:1031B00028BF0424BEF103034FF0FF3E0EFA04F4CF
:1031C00038BF0023A14399400EFA03F39A431143F9
:1031D00000F00F0200F160430901043A03F5644373
:1031E0006244002848BF02F10C03197010BD0000B2
:1031F0004EF60C51CEF200010A684FF6FF031A405A
:1032000060F30A2242F0806040F0FD700860704771
:10321000012821D002280DD0102808D141F2040144
:10322000C4F202010A6851F8040CC00134D4002031
:10323000704700BF80B500F0DBF941F20401C4F231
:10324000020109680222C1F3813102EB4101B0FBA6
:10325000F1F0BDE88040704741F20400C4F2020082
:10326000C16940F202320A40B2F5817F04BF4FF4D7
:103270000040704701F44071B1F5407F18D0B1F5BE
:10328000007F1CBF00207047006A49F6404180075C
:1032900001EAE070704700BFC2F3834015A3185CD9
:1032A000D2030DD440F60012C0F23D02504313E0A9
:1032B00050F8040C4FF22441800301EAE07070479B
:1032C0000A6810A3C2F340429A5C41F20023C0F2A4
:1032D0007A03B3FBF2F250430968490248BF7047D2
:1032E0004AF6AB214000CAF6AA21A0FB010148081A
:1032F000704700BF02030405060708090A0B0C0DFE
:103300000E0F1010010200002DE9F04182B00446BA
:10331000007841F21C06C007C4F202064AD03068A9
:103320005FEAC00808D4306840F0805030603068F0
:1033300000F080500190019847F20007C4F20007A6
:103340003868C00512D4386840F480703860FFF7E0
:10335000A3FE05463868C00508D4FFF79DFE401B54
:103360006428F7D9032002B0BDE8F081706810F43A
:10337000407012D0616801F4407188420DD07068CD
:1033800040F24042C4F24222012320F44071136013
:103390000023C0071360716026D17068616820F453
:1033A00040700843B8F1000F706003D4306820F01B
:1033B000805030602068810707D556F8181CA26835
:1033C00021F44041114346F8181CC00607D556F8B1
:1033D000180CE16820F48000084346F8180C00201F
:1033E00002B0BDE8F08100BFFFF756FE054641F28E
:1033F000883700BF70688007CFD4FFF74DFE401BB1
:10340000B8424FF00300F5D9EAE70000002804BFF6
:10341000012070472DE9F04381B042F20008C4F268
:1034200002080446D8F800000D4600F0070081426B
:103430000CD9D8F8000020F007002843C8F8000095
:10344000D8F8000000F00700A8426CD1206841F2D3
:1034500004098107C4F2020917D5410705D5D9F837
:10346000001041F4E061C9F80010010705D5D9F852
:10347000001041F46051C9F80010D9F80010A2689A
:1034800021F0F0011143C9F80010C00742D1D8F86B
:10349000000000F0070085420CD2D8F8000020F0B0
:1034A00007002843C8F80000D8F8000000F0070023
:1034B000A84238D12068410707D5D9F80010E26842
:1034C00021F4E0611143C9F80010000708D5D9F8CC
:1034D0000000216920F4605040EAC100C9F80000F2
:1034E000D9F8002002F00C00082841F20020C0F2B8
:1034F0007A004DD147F64C13C2F38341C0F6000366
:10350000595CD20338D440F60010C0F23D00484365
:103510003EE000BF606859F8041C022808D001286A
:1035200026D1890306D4012001B0BDE8F08300BF95
:103530008901F8D5D9F8001021F003010843C9F832
:103540000000FFF7A9FD064641F28837D9F80000D0
:10355000616800F00C00B0EB810F98D0FFF79CFD84
:10356000801BB842F2D9032001B0BDE8F08300BF50
:103570008907D8D5DEE700BFD9F8002047F64A13FF
:10358000C2F34042C0F600039A5C4843B0FBF2F03D
:10359000D9F8001047F63212C1F30311C0F6000249
:1035A000515C40F2180220FA01F140F21000C2F220
:1035B00000000068C2F200021160FFF795FD0020D4
:1035C00001B0BDE8F083000040F2180041F20401B0
:1035D000C2F20000C4F202010068096847F6421214
:1035E000C1F30221C0F60002515CC84070470000E0
:1035F00040F2180041F20401C2F20000C4F20201DC
:103600000068096847F64212C1F3C221C0F6000201
:10361000515CC84070470000002804BF012070477B
:103620002DE9F04182B00446007841F20006C0075F
:10363000C4F202060CD0706800F00C00042840F0C0
:1036400081803068800303D56068002800F04681DF
:10365000207880071BD5706810F00C0F09D07068B7
:1036600000F00C00082840F087807068C00300F16B
:1036700083803068800703D52069012840F02E81BF
:103680003068616920F0F80040EAC10030602078BD
:10369000000713D4207840072CD4E569002D00F0F2
:1036A0001881706800F00C00082840F0A780012DF8
:1036B00040F00481012002B0BDE8F081A06900283B
:1036C00000F084800020C4F242200121C0F8801460
:1036D000FFF7E2FC054600BF706A800700F1B28088
:1036E000FFF7DAFC401B0228F6D9032002B0BDE840
:1036F000F08100BFF0695FEAC00808D4F06940F0CB
:103700008050F061F06900F080500090009847F21E
:103710000007C4F200073868C00549D4386840F48F
:1037200080703860FFF7B8FC054600BF3868C005F8
:103730003ED4FFF7B1FC401B6428F7D9032002B048
:10374000BDE8F081706800F00C00082803D17068B3
:10375000C0033FF576AF61683068002900F00C8146
:10376000B1F5A02F00F00081B1F5803F40F01A8143
:1037700040F480301CE100BF2069002840F20000C6
:10378000C4F2422000F0888001210160FFF784FC30
:10379000054600BF306880073FF572AFFFF77CFC3D
:1037A000401B0228F6D9032002B0BDE8F08100BF1B
:1037B000E168306A002900F09D80052900F09280C0
:1037C000012940F0AF8040F00100B1E00020C4F2D8
:1037D00042200021C0F88014FFF75EFC054600BFC0
:1037E000706A80077FF556AFFFF756FC401B022832
:1037F000F6D9032002B0BDE8F08100BF0027C4F273
:10380000422700203866FFF747FC022D05460DD100
:103810003068800140F1DE80FFF73EFC401B02284B
:103820004FF00300F4D902B0BDE8F08130688001A8
:103830004FD5FFF731FC401B02284FF00300F5D9AC
:10384000F1E700BF40F21800C2F20000006844F641
:10385000D351C1F26201A0FB0101480A019000BFEF
:1038600000BF0198411E002801913FF413AF00BF33
:103870000198411E002801913FF40CAF00BF019850
:10388000411E002801913FF405AF00BF0198411E81
:1038900000280191E4D1FDE600210160FFF7FCFB67
:1038A000054600BF306880077FF5F1AEFFF7F4FBF7
:1038B000401B02284FF00300F4D9B4E77068216A76
:1038C00000F480328A4209D1616A00F470108842A3
:1038D00004D1002002B0BDE8F08100BF012002B099
:1038E000BDE8F08140F004003062306A40F0010031
:1038F0001EE000BF20F001003062306A20F00400BA
:103900003062FFF7C9FB054641F28837306A80070D
:1039100020D5FFF7C1FB401BB8424FF00300F5D99B
:1039200081E700BF20F001003062306A20F004001F
:103930003062FFF7B1FB054641F28837306A8007F5
:1039400008D4FFF7A9FB401BB842F7D9032002B007
:10395000BDE8F081B8F1000F3FF59FAEF06920F0AF
:103960008050F06199E600BF40F4802030603068FC
:1039700040F480301CE000BF20F4803030603068BC
:1039800020F480203060FFF787FB05463068800315
:103990007FF55EAEFFF780FB401B64284FF003000D
:1039A000F4D940E720F480303060306820F4802083
:1039B0003060FFF771FB0546306880033FF548AE85
:1039C000FFF76AFB401B6428F6D9032002B0BDE86C
:1039D000F08100BF206AB0F5803F05D17168A26810
:1039E00021F40031114371607168626A21F474112D
:1039F00011430843706001203866FFF74DFB044611
:103A0000306880013FF565AFFFF746FB001B0228D9
:103A10004FF00300F4D906E77047000070B528B1F5
:103A2000416A29B100210161142106E0012070BD25
:103A30004168B1F5827F02D01C210022425000264D
:103A4000866290F8511029B980F85060054600F060
:103A500039F82846022180F8511090E82E0002F42F
:103A600082720C6803F4044324F040040C601A448E
:103A700005F4006305691A4405F0020345691A4418
:103A800005F001038569C4691A4405F400731A44FA
:103A900004F03803046A1A4404F08003846A1A4369
:103AA00004F400531A430A60042202EA15424A60F1
:103AB000CA6922F40062CA610121466580F851108A
:103AC000304670BD2DE9F04186B040F60005044651
:103AD000C4F20105006805F52051002788420597CA
:103AE000CDE90377029703D006B0BDE8F08100BFAF
:103AF00041F21800C4F20200016802AE41F48051A4
:103B00000160016840F21C0801F4805101910199A3
:103B10000168C4F2020841F0040101600068314606
:103B200000F0040001900198A02002900220039070
:103B3000032005902846FFF799F94020CDE90207B8
:103B4000284631460497FFF791F940F2E82508F13D
:103B50001400C2F200051021802685E88300284663
:103B6000C5E90367C5E90577EF61FFF7D9F80028D4
:103B700018BFFDF739FCA5646C6240F2A425C2F2BF
:103B800000050020C5E90080C5E90206C5E904007A
:103B9000C5E906002846FFF7C3F8002818BFFDF75F
:103BA00023FCE5646C6206B0BDE8F081704700005C
:103BB0007047000070B590F85150012D08D10029D0
:103BC0004FF0010C18BF002A0ED1604670BD00BF37
:103BD0004468B4F5827F0DD1042D4FF0020CF4D16E
:103BE0008568002DEBD0F0E7002BEED090F8505018
:103BF000012D01D1022070BD012580F8505090F8B0
:103C000051500024042D1CBF052580F851504465F7
:103C100001638386C38682638387C387C0E91044B8
:103C200090F8511045F6E95345F6F156C0F60003F9
:103C3000C0F600060568D0F84CC0042908BF1E462F
:103C400045F6F95145F6A563C0F60001C0F600033C
:103C500008BF0B4645F6C951C0F60001CCE90A364B
:103C6000CCE90C14C38F064605F10C016046FFF742
:103C700099F838B1706D40F010007065012086F839
:103C8000504070BD3568B06C696805F10C0241F0B8
:103C900001016960C0E90A44C0E90C44316BF38E4C
:103CA000FFF780F840B1706D40F0100070650020A3
:103CB00086F85000012070BD30683546016849061D
:103CC00003D4016841F0400101604FF0000C85F819
:103CD00050C0416841F020014160416841F002015B
:103CE0004160604670BD000070B540F60004C4F24B
:103CF0000104006804F52051884218BF70BD2046B9
:103D000010210122FFF7C2F940F29805C2F2000526
:103D100028786978800140EA910068606868FCF75B
:103D2000B6FE40F6DB71C4F2C901FCF757FC4FF058
:103D30006251FCF753FC40F6DB71CCF249010646B8
:103D4000E860FCF75FFE28B940F6DB71C4F2C901F8
:103D50000EE000BF40F6DB71C4F249013046FCF7CB
:103D600035FE0028304606D140F6DB71CCF2C901A1
:103D70003046FCF7DBFB0021C4F23431A860FCF7CD
:103D80002DFC40F6DB71C4F24901FCF759FC40F20E
:103D90002001C2F20001096828613046FCF718FCD6
:103DA0000021C4F2E001FCF719FC686120461021F3
:103DB0000022FFF76BF940F22C30C2F200002946D6
:103DC0002A460223BDE87040FFF7F4BE70470000AA
:103DD000411E0020B0EB116F1CBF012070474EF256
:103DE0001002CEF2000251604EF62351CEF20001D5
:103DF000F0230B700721906011607047704700003E
:103E00007047000090F83C20012A04BF0220704750
:103E1000B0B501F108053CCDD1E900CE23F47C53C7
:103E200022F470521A432EF4F0431A432CF4E04368
:103E30001A4324F4C0431A432A43C96922F4804236
:103E4000036811435964002180F83C100020B0BD84
:103E500090F83C20012A4FF0020236D010B580F8CD
:103E60003D200268D2F804E0D2F808C00C682EF0B9
:103E70007003234340F2FF74C4F20004A242536073
:103E80000ADCB2F1804F13D040F20043C4F20003C9
:103E90009A420DD011E000BF42F60043C4F2010384
:103EA0009A4205D040F60003C4F200039A4204D1BE
:103EB00049682CF08003194391600121002280F8A9
:103EC0003D1080F83C20BDE81040104670470000CF
:103ED000002804BF0120704710B590F83D1031B99B
:103EE000002180F83C10044600F070F820460221C2
:103EF00080F83D10016840F2FF740B68C4F20004C2
:103F000042F6004CA142C4F2010C15DCB1F1804F25
:103F10001AD040F20042C4F20002914214D0A142F1
:103F200018DCB1F1804F1DD040F20042C4F2000213
:103F3000914217D01AE000BF614505D040F600025B
:103F4000C4F200029142EAD1826823F07003134365
:103F5000A142E6DD614505D040F60002C4F2000250
:103F6000914203D1026923F440731343846923F01F
:103F70008002D0F804E0C368224361450A60CB6246
:103F8000C1F828E002D14269CCF8302001224A6110
:103F90000B69DB0703D00B6923F001030B6180F889
:103FA000462080F83E2080F83F2080F8402080F8AE
:103FB000412080F8422080F8432080F8442080F897
:103FC000452080F83D20002010BD000080B582B063
:103FD0000068B0F1804F15D042F60041C4F20101F3
:103FE00088420CD141F21800C4F20200016841F489
:103FF00000610160006800F400600190019802B067
:1040000080BD00BF41F21800C4F2020041680022E6
:1040100041F0010141604068002100F00100009082
:1040200000981C20FFF7B8F81C2002B0BDE88040C3
:10403000FFF7A0B890F83D1001291CBF0120704780
:10404000022180F83D10006840F2FF72C168C4F29E
:104050000002904241F00101C16009DCB0F1804FE3
:1040600012D040F20041C4F2000188420CD012E0AC
:1040700042F60041C4F20101884205D040F6000139
:10408000C4F20001884206D1816801F007010629C7
:1040900004BF00207047016841F001010160002069
:1040A0007047000090F83C20012A4FF002026CD0CB
:1040B00080B580F83D20D0F800C04FF67772DCF86C
:1040C000083023EA0202CCF808200B684F2B29DCC9
:1040D0001F2B45DD202B46D0302B44D0402B40F009
:1040E000AF80D1F804E0C968DCF82030DCF820208B
:1040F00022F00102CCF82020DCF8182022F0F00297
:1041000042EA011123F00A0242EA0E02CCF818102A
:10411000CCF82020DCF8081041F0470121F03001F4
:1041200028E000BF6F2B33DDB3F5005F74D0B3F52B
:10413000805F21D0702B40F08380D1E901E3C96812
:10414000DCF8082043EA0E0322F47F4243EA01210F
:104150001143CCF80810DCF8081041F0770109E0B1
:104160000BB1102B6CD1DCF8081021F07001194351
:1041700041F00701CCF808100022012180F83D1021
:10418000002180F83C10BDE880401046704700BF19
:10419000502B21D0602B53D1D1F804E0C968DCF852
:1041A0002030DCF8202022F01002CCF82020DCF8AF
:1041B000182022F4704242EA013123F0A00242EAC0
:1041C0000E12CCF81810CCF82020DCF8081041F0C2
:1041D000670121F01001CDE7D1F804E0C968DCF8EF
:1041E0002030DCF8202022F00102CCF82020DCF87E
:1041F000182022F0F00242EA011123F00A0242EAFA
:104200000E02CCF81810CCF82020DCF8081041F091
:10421000570121F02001ADE7D1E901E3C968DCF8DD
:10422000082043EA0E0322F47F4243EA01211143AE
:10423000CCF80810DCF8081041F480419AE700BF80
:1042400001229AE77047000070B504460068C5680F
:104250000669B10716D515F0020113D06FF00201FF
:104260000161012121778069800703D02046FFF793
:10427000E9FF05E0204600F08FF8204600F010FA34
:1042800000202077700719D515F0040016D020689B
:104290006FF00401016102212177806910F4407FF1
:1042A00004D02046FFF7CEFF06E000BF204600F016
:1042B00073F8204600F0F4F900202077300717D576
:1042C00015F0080014D020686FF008010161042186
:1042D0002177C069800703D02046FFF7B3FF05E0D0
:1042E000204600F059F8204600F0DAF90020207747
:1042F000F00619D515F0100016D020686FF01001E7
:10430000016108212177C06910F4407F04D0204664
:10431000FFF798FF06E000BF204600F03DF820467A
:1043200000F0BEF900202077F00718BF15F001005B
:1043300002D1300609D412E020686FF0010101615A
:10434000204600F01DFA300609D515F0800006D091
:1043500020686FF0800101612046FFF74FFD700675
:1043600009D515F0400006D020686FF040010161CA
:10437000204600F051FAB00658BF70BD15F020007D
:1043800008D021686FF0200220460A61BDE8704025
:10439000FFF736BD70BD00007047000090F83C305C
:1043A000012B04BF022070474FEAB202032A00F239
:1043B000F1802DE9F043DFE802F003A53B7500BF73
:1043C000036842F600461D6A1A6AC4F2010622F02A
:1043D00001021A621A465C6852F818CFB3428E681E
:1043E000D1F800E025F0020545EA06050CD1CE68BB
:1043F000D1E9057824F4407425F00C0526F0040674
:104400003C43354344EA08042CF0730747EA0E079F
:104410005C609F614F6809695F631D629F6947F037
:1044200008079F619F6927F004079F61A6E000BF0E
:10443000036842F600461D6A1A6AC4F2010622F4B5
:1044400080721A621A46D3F804C052F81CEFB342C5
:104450008E680C6825F4007545EA06250FD1CE68F4
:10446000D1E90598360240F2FF4725F44065BE4386
:1044700035432CF4405748EA090647EA061C2EF05B
:1044800073072743C3F804C0DF614F680969DF631E
:104490001D62DF6947F00807DF61DF6927F0040765
:1044A000DF616BE0036842F60047D3F820C01A6A68
:1044B000C4F2010722F480521A621A465C6852F86C
:1044C0001C5FD1F800E08E68BB4204D14F6924F430
:1044D000804444EA87142CF4005747EA063725F451
:1044E000E64646EA0E265C60DE614E6809691E6497
:1044F0001F62DF6947F40067DF61DF6927F48067C7
:10450000DF613AE0036842F600461D6A1A6AC4F2A7
:10451000010622F010021A621A46D3F804C052F8BB
:10452000184FB3428E68D1F800E025F0200545EA27
:1045300006150FD1CE68D1E905986FF0400725F038
:10454000C00507EA061635432CF4406748EA090619
:1045500047EA860C24F4E64444EA0E27C3F804C074
:104560009F614F6809699F631D629F6947F40067F7
:104570009F619F6927F480679F610902136819434F
:1045800011600021BDE8F043002280F83C2008467D
:10459000704700BF0121002280F83C200846704788
:1045A000002804BF0120704710B590F83D1031B9C4
:1045B000002180F83C10044600F070F820460221EB
:1045C00080F83D10016840F2FF740B68C4F20004EB
:1045D00042F6004CA142C4F2010C15DCB1F1804F4F
:1045E0001AD040F20042C4F20002914214D0A1421B
:1045F00018DCB1F1804F1DD040F20042C4F200023D
:10460000914217D01AE000BF614505D040F6000284
:10461000C4F200029142EAD1826823F0700313438E
:10462000A142E6DD614505D040F60002C4F2000279
:10463000914203D1026923F440731343846923F048
:104640008002D0F804E0C368224361450A60CB626F
:10465000C1F828E002D14269CCF8302001224A6139
:104660000B69DB0703D00B6923F001030B6180F8B2
:10467000462080F83E2080F83F2080F8402080F8D7
:10468000412080F8422080F8432080F8442080F8C0
:10469000452080F83D20002010BD0000704700003C
:1046A00070470000C1B1042908D0082914BF412275
:1046B0004022825C012A05D016E000BF3F22825CC6
:1046C000012A11D10222082910D0042914BF80F830
:1046D000412080F83F200BE090F83E20012A03D1D2
:1046E000022280F83E2003E00120704780F840203D
:1046F000006801F01F010122036A8A4023EA0201D7
:104700000162036A42F64441C4F201011A43A1F175
:104710004403984202620FD040F2FF71C4F20001DC
:10472000884213DCB0F1804F1CD040F20041C4F24B
:104730000001884216D01CE00A6842F400420A6078
:1047400040F2FF71C4F200018842EBDD42F6004105
:10475000C4F20101884205D040F60001C4F2000114
:10476000884206D1816801F00701062904BF0020B4
:104770007047016841F001010160002070470000AE
:104780000068B0F1804F18BF7047B0B540F22805FF
:10479000C2F200056888013081B2B1F5FA7F688005
:1047A00009D30020688040F60040C4F201004FF4B5
:1047B0008051FEF763FC40F2A0042978C2F20004A5
:1047C0002068012902D1696904E000BF0121297034
:1047D00001466861FBF7FCFEFCF7E6FD28612068F6
:1047E00068612869D5E90241FBF7A0FEE860286905
:1047F00041F26F21C3F68321FBF722FF686040F28C
:104800001400C2F2000002686868214600F004FD4E
:10481000A860BDE8B04070477047000070470000D6
:10482000006844F20041C4F20001884218BF70479A
:1048300081B040F2400CC2F2000CDCF80C1040F2E7
:1048400014420131CCF80C1000210091C2F2000298
:1048500013681868009058680090009800911868D4
:10486000009058680090009800911868009058686F
:104870000090009800911868009058680090009887
:10488000516492F84200222801B001D1704700BF64
:1048900040F214400CF10301C2F20000012200F0CA
:1048A00071BB0000B0B582B001680A68CC684B6982
:1048B00002F02F05202D04F0200505D125B102B00E
:1048C000BDE8B04001F06CBF5FEA027C1EBF03F0A0
:1048D000010E04F4907313EB0E0341D1036BD50664
:1048E00018D5012B16D114F0100313D00022019219
:1048F0000A6801924A680192019A496949064BD4B3
:10490000818DC28DC38D002B18BF914240F0F48180
:1049100002B0B0BD13062DD514F080032AD090F854
:104920004120212AF4D18268B2F5805F03D1026967
:10493000002A00F06782026A531C036212784A6000
:10494000C28C013A1304C284E2D1C86820F080000E
:10495000C860C86840F04000C86002B0B0BD00BF89
:10496000D30718BF14F4807340F0D080530700F1D0
:10497000D380D8E05206CBD514F04002C8D0CA6824
:1049800022F04002CA60202180F8411002B0BDE848
:10499000B04000F03DBC00BFC16B0A68526893B2E2
:1049A000002BB5D0858DAB42B2D2C2858969202952
:1049B00000F0A180016851E8031F026821F48071B2
:1049C00042E80313DBB1016851E8031F026821F4D8
:1049D000807142E8031393B1016851E8031F026834
:1049E00021F4807142E803134BB1016851E8031FC1
:1049F000026821F4807142E80313002BDAD10168C8
:104A000051E8051F026821F0010142E80513C3B314
:104A1000016851E8051F026821F0010142E8051311
:104A20007BB3016851E8051F026821F0010142E8EB
:104A3000051333B3016851E8051F026821F0010135
:104A400042E80513002BDAD11BE000BF016851E8F2
:104A5000051F026821F0400142E80513DBB101683F
:104A600051E8051F026821F0400142E8051393B1A7
:104A7000016851E8051F026821F0400142E8051372
:104A80004BB1016851E8051F026821F0400142E87E
:104A90000513002BDAD1202180F842100021016398
:104AA000016851E8031F026821F0100142E8031376
:104AB000DBB1016851E8031F026821F0100142E8F0
:104AC000031393B1016851E8031F026821F010013C
:104AD00042E803134BB1016851E8031F026821F05B
:104AE000100142E80313002BDAD1C16B04460846DB
:104AF000FDF7C6FF204602214163818DC28D891AD0
:104B000089B202B0BDE8B040FFF788BE436C43F005
:104B100001034364530706D5BEF1000F03D0436C75
:104B200043F002034364930706D5BEF1000F03D0A0
:104B3000436C43F004034364BCF1000F06D55EEA06
:104B4000050303D0436C43F008034364436C002B1C
:104B50003FF4DEAE920605D525B1044601F020FEF5
:104B6000216820464969426C01F0400102F00802C8
:104B7000891800F0B98000BF016851E8031F02687E
:104B800021F4907142E80313BBB3016851E8031F9D
:104B9000026821F4907142E8031373B3016851E88D
:104BA000031F026821F4907142E803132BB30168DC
:104BB00051E8031F026821F4907142E80313002BAF
:104BC000DAD11AE0016851E8051F026821F00101FD
:104BD00042E80513DBB1016851E8051F026821F0C6
:104BE000010142E8051393B1016851E8051F02680D
:104BF00021F0010142E805134BB1016851E8051F9E
:104C0000026821F0010142E80513002BDAD1016BA3
:104C1000012924D1016851E8031F026821F0100125
:104C200042E80313DBB1016851E8031F026821F079
:104C3000100142E8031393B1016851E8031F0268B1
:104C400021F0100142E803134BB1016851E8031F42
:104C5000026821F0100142E80313002BDAD1202171
:104C600080F842100021016301684969490640F15A
:104C7000C380016851E8051F026821F0400142E845
:104C80000513DBB1016851E8051F026821F04001FE
:104C900042E8051393B1016851E8051F026821F04D
:104CA000400142E805134BB1016851E8051F026855
:104CB00021F0400142E80513002BDAD1C16B002935
:104CC00000F09A8046F29572C0F60002044608464B
:104CD0004A63FDF7F9FE00283FF41AAEE06B416B22
:104CE00002B0BDE8B04008470446FFF799FD002038
:104CF000606402B0B0BD00BF891A00BF026852E80C
:104D0000032F036822F4907243E80325BDB30268C1
:104D100052E8032F036822F4907243E8032575B329
:104D2000026852E8032F036822F4907243E80325D7
:104D30002DB3026852E8032F036822F4907243E80F
:104D40000325002DDAD11AE0026852E8052F036826
:104D500022F0010243E80525DDB1026852E8052F83
:104D6000036822F0010243E8052595B1026852E884
:104D7000052F036822F0010243E805254DB10268C2
:104D800052E8052F036822F0010243E80525002DB3
:104D9000DAD1202280F8422000220263026852E821
:104DA000032F036822F0100243E80325DDB10268F7
:104DB00052E8032F036822F0100243E8032595B15F
:104DC000026852E8032F036822F0100243E803252B
:104DD0004DB1026852E8032F036822F0100243E845
:104DE0000325002DDAD1022289B2426302B0BDE868
:104DF000B040FFF713BD00BF02B0BDE8B040FFF701
:104E00000FBD00BF026A32F8023B6FF35F234B60B5
:104E1000026295E5002804BF0120704710B50446E2
:104E200090F8410028B9002084F84000204600F0A6
:104E300063F8242084F841002068D4E90212C36892
:104E400023F40053C360036923F440531A430261FF
:104E5000D4E904231143C268194341F20C639A4315
:104E60001143C1604169A26921F44071114343F6C5
:104E70000002C4F201029042416103D0FEF7A4FB9C
:104E800002E000BFFEF7B4FBD4E900231921484338
:104E90009900B0FBF1F048F21F5CC5F2EB1CA0FBDF
:104EA0000C314FF69C734909C0F6FF7301FB0300F8
:104EB000322303EB0010A0FB0C03F02000EA531098
:104EC00000EB0110C3F343110844906010692021E6
:104ED00020F490401061506920F02A005061D068A1
:104EE00040F40050D0600020606484F8411084F8E1
:104EF0004210606310BD000070B586B040F600043B
:104F0000C4F201040068A4F54441002688420596D5
:104F1000CDE90366029601D006B070BD41F21800DB
:104F2000C4F20200416802AD41F4003141604168C1
:104F300001F4003101910199016841F0040101601F
:104F40000068294600F004000190019804200290B6
:104F500002200390032005902046FDF787FF0820DC
:104F6000CDE90206204629460496FDF77FFF26205C
:104F700000210022FEF710F92620FEF7FBF806B00C
:104F800070BD000090F84230202B07D100294FF06F
:104F9000010318BF002A05D118467047022318469E
:104FA000704700BF00230363816222218285C2858E
:104FB000436480F842100169006819B1C16841F486
:104FC0008071C160416941F001014161C16841F0F6
:104FD0002001C16018467047B0B5006844F2004136
:104FE000C4F20001884218BFB0BD40F24004C2F2D2
:104FF0000004E0780D282DD00A2819D12078617896
:1050000022180025157659B9A080421C40F25C4058
:1050100004F11801C2F20000FBF78AF80120607069
:10502000204600F8185B4021FBF79BF812E000BF18
:10503000217862181076481CC1B23F29207009D32C
:105040000020207004F118004021FBF78AF8A068C6
:105050000130A06040F21440C2F2000090F842001B
:10506000222801D1B0BD00BF40F21440E11CC2F2C1
:1050700000000122BDE8B040FFF784BF2DE9F043F6
:1050800081B0044690F84100202809D100294FF052
:10509000010018BF002A07D101B0BDE8F08300BFAE
:1050A000022001B0BDE8F0830020606421201D468D
:1050B0000E4684F841001746FDF7EEFFA784E7840B
:1050C000A1688146B1F5805F02D1206900285DD0DA
:1050D00037460020E28C2168002A5DD06A1C24D06B
:1050E000002D4AD0804600BF0868000608D4FDF7AE
:1050F000D3FFA0EB0900A8427AD82168C868F3E77B
:1051000017B117F8010B04E038F8020B00276FF312
:105110005F204860E08C0138E084E08C0028E3D117
:105120003AE000BF0A68120609D40A68120606D4DB
:105130000A6812065CBF0A685FEA0262F2D51FB114
:1051400017F8012B05E000BF30F8022B00276FF3A2
:105150005F224A60E28C013AE284E28C002AE4D1C8
:105160001AE000BF30F8022B00276FF35F224A607D
:10517000E28C013AE284E28C72B10A68120635D5FB
:10518000002FEFD017F8012BF1E700BF00273046C2
:10519000E28C2168002AA1D1086840061ED42DB3F4
:1051A000681C14D1086840062AD40868400627D431
:1051B0000868400624D4086840064FF00000F1D586
:1051C0000DE000BF2068C1680068400618D4FDF7F4
:1051D00063FFA0EB0900A842F4D909E000202021D8
:1051E00084F8411001B0BDE8F08300BFFDF754FF23
:1051F0000320202184F8411001B0BDE8F08300BFF6
:105200000020202184F8411001B0BDE8F0830000A7
:1052100070470000FEE700002DE9F0410E46114600
:105220001746FBF7DBF9FBF77AFC804638460D465C
:10523000FBF775FC0B4600210246C3F6F071002017
:10524000FBF7DDFA074630460C46FBF768FC0246E2
:105250000B4638462146FBF7D8FA42462B46FBF769
:105260002DFAFBF76FFCBDE8F081000080B588B037
:1052700040F24C1042F2004C0021C2F20000C4F295
:10528000010C01234FF46022059103730175C26183
:10529000C0E900C181600361FCF7C2FE002818BFAD
:1052A000FCF7A2F84FF4A020079040F24C10C2F295
:1052B000000007A9FCF70CFE002818BFFCF794F8C3
:1052C0000020009001210690ADF81400039040F2F8
:1052D0004C100491CDE90111C2F200006946FCF7BF
:1052E00003FB002818BFFCF77FF808B080BD000062
:1052F00070B588B040F24C15C2F2000542F60001CC
:10530000C4F201012846002440F8301F01264FF462
:105310006021CDE9064406730475C161C0E901440A
:105320000661FCF77DFE002818BFFCF75DF805F16B
:10533000300001A9CDE9016605960396ADF8184045
:105340000494FCF7D1FA002818BFFCF74DF808B018
:1053500070BD000010B540F27C2046F20041C2F260
:105360000000C4F20001032200234FF0012480E872
:105370000E0000F10C014FF4002C4FF4801E81E868
:10538000085084618383FDF71FFA002808BF10BD11
:10539000BDE81040FCF728B880B582B041F2140097
:1053A000C4F202000168002241F0010101600068BE
:1053B000002100F00100019001980C20FDF7ECFEA7
:1053C0000C20FDF7D7FE0D2000210022FDF7E4FEA2
:1053D0000D2002B0BDE88040FDF7CCBE2DE9F047BE
:1053E00086B04FF0000941F21800CDE90499CDE9EB
:1053F0000299C4F20200016840F6000A41F010016F
:1054000001600168C4F2010A01F0100101910199E3
:105410000168002241F0200101600168102601F0BE
:10542000200101910199016841F0040101600168C6
:1054300001F0040101910199016841F00801016046
:105440000068102100F00800019001985046FDF717
:105450001DFE0AF5806528464FF4805100224FF466
:105460008058FDF713FE029602AE01270224504633
:105470003146CDE903790594FDF7F8FC284631461D
:10548000CDE90287CDE90494FDF7F0FC06B0BDE854
:10549000F087000010B540F22C3043F20001C2F258
:1054A0000000C4F201014FF4827200234FF0010C9E
:1054B0004FF4007E302480E80E000A21C0E9033357
:1054C000C0E905CEC461C0E90833C0E90A31FEF77E
:1054D000A5FA002808BF10BDBDE81040FBF784BF47
:1054E00070B59CB042F6004540F28430C4F201052C
:1054F0000021C2F20000602240F60F6304268024DF
:105500001691CDE914111191CDE90F11CDE90D11CD
:10551000CDE90B11CDE90911CDE90711CDE905114F
:10552000CDE90311CDE90111C0E90051C0E9022321
:10553000C0E904168461FEF7CBFC002818BFFBF716
:1055400053FF4FF48050139040F28430C2F20000B9
:1055500013A9FEF7A7FD002818BFFBF745FF40F28F
:105560008430C2F20000FFF71BF8002818BFFBF7D9
:105570003BFF2020109040F284300024C2F2000053
:1055800010A91194FEF764FC002818BFFBF72CFF4C
:105590006020CDE9090440F28430C2F2000009A97C
:1055A0000022CDE90B44CDE90D440F94FEF7F6FE41
:1055B000002818BFFBF718FF40F28430C2F2000049
:1055C00009A90422FEF7EAFE002818BFFBF70CFF2A
:1055D00040F28430C2F2000009A90822FEF7DEFE84
:1055E000002818BFFBF700FF40F284344FF400504E
:1055F000C2F200040026069001A920460596CDE9D6
:105600000366CDE901660896FEF7FCFB002818BF8B
:10561000FBF7EAFE2068CDE91A66A84219961896AB
:1056200002D01CB070BD00BF41F21800C4F20200ED
:10563000016841F004010160006818A900F004004D
:10564000179017984FF4E0601890022019901B9063
:10565000A5F51050FDF70AFC1CB070BD80B586B0F2
:1056600040F2CC300021C2F2000040F2E73C05914C
:10567000CDE90311CDE900114FF080424723C0E985
:10568000021C01618021C0E900238161FEF720FC3A
:10569000002818BFFBF7A8FE4FF48050029040F29C
:1056A000CC30C2F2000002A9FEF7FCFC002818BFB3
:1056B000FBF79AFE40F2CC30C2F200006946FEF7DA
:1056C000C7FB002818BFFBF78FFE06B080BD0000A7
:1056D00080B540F2144044F20041C2F20000C4F22E
:1056E000000100234FF00C0C4FF4E13280E80E0073
:1056F000C0E90333C0E905C3C361FFF78BFB002892
:1057000008BF80BDBDE88040FBF76EBEFEE700002D
:10571000FEE700002DE9F04381B0D0F8048089460F
:105720000446C160404600210027FBF787F938BBDB
:105730006169266A4846FAF7F9FE07466061304615
:105740004146FAF77DFF064638463146FBF73EF9FB
:10575000002804BF66613746606A4146FAF770FF69
:10576000064638463146FBF74DF9002804BF66610E
:10577000374640463946FAF731FF074601E000BF99
:10578000676121692568A668D4F82C804846A7611E
:10579000FAF71EFF01463046FAF720FF0646E061A1
:1057A00028464946C4F81090FAF718FF3946FAF728
:1057B000BDFE01463046FAF7B9FE41460546A062F5
:1057C000FBF712F9002804BFC4F828804546266B71
:1057D00028463146FBF724F9002804BFA662354667
:1057E000284601B0BDE8F08370B5DDE906ECDDE9DF
:1057F00004540026C0E90854C0E90A6EC0F830C05D
:1058000080E84E00C0E90466C0E9066670BD00008D
:105810002DE9F04F81B093460E460446FBF77FF921
:1058200040F20009C4F2615907460D462046494638
:10583000FAF7D4FEFBF75FF94CF6CD4A4CF6CC44B0
:10584000CCF6CC4AC3F6EC7480463846294652461C
:105850002346FBF701F90028304640F6A84108BF6F
:105860008846FBF75CF905460F4630464946FAF78D
:10587000B5FEFBF740F90646284639465246234610
:10588000FBF7EAF8002840F6A84008BF064658464D
:10589000FBF745F905460F4658464946FAF79EFE7E
:1058A000FBF729F94CF6CC430446284639465246C4
:1058B000C3F6EC73FBF7D0F80028EFF3108072B654
:1058C00040F28430C2F20000006840F6A84108BFF0
:1058D0000C46C0F834808663C46362B601B0BDE88C
:1058E000F08F0000704700002DE9F04F85B00027D1
:1058F0000497CDE9027700F037F940F2B00B40F29F
:105900003402C2F2000BC2F20002DBF80C1016687F
:10591000044608463146FAF75BFE40F23001C2F217
:105920000001D1F800A0054620465146FAF750FE86
:105930009BF8011040F2482940F214280129C2F2D4
:105940000009C2F200081BD140F2AC11C2F2000102
:105950008BF801708F62C1E90377C1E90577CF61E8
:10596000C9F82870C9E90377C9E90577C9F81C7037
:10597000C8F82870C8E90377C8E90577C8F81C702B
:105980004CF6CD41C3F6CC41FAF728FE45F6294145
:105990000446C3F68F612846FAF720FE2146FAF73F
:1059A000C5FDDBF81410054608463146FAF710FE2F
:1059B00042F6173120F00040C3F6C831FBF722F859
:1059C00020BB4CF28F212AF00040C3F6F551FBF7C3
:1059D00019F8D8B9DBF810004CF28F2120F0004004
:1059E000C3F6F551FBF70EF880B90025C9F8285029
:1059F000C9E90355C9E90555C9F81C50C8F828502C
:105A0000C8E90355C8E90555C8F81C5043F23331BD
:105A1000CBF6B3612846FAF7E7FF43F23334C3F617
:105A2000B36400281CBF43F23335CBF6B365284678
:105A30002146FAF7D9FF002840F20010C2F2000018
:105A4000076840F24810C2F20000D0F800B04FF0F2
:105A50007C51584608BF2546FAF7C0FD0146384636
:105A6000FAF7B6FD00218146CCF2E0015046FAF784
:105A7000B5FDFBF754F849F2035242F63363CEF614
:105A8000F172C3F64C73FAF7C0FE064640F24410BA
:105A9000C2F20000046888462046FBF740F8024640
:105AA0000B4630464146FAF7B0FEFBF74BF840F2A2
:105AB000B007C2F200070646786040F24820C2F202
:105AC00000004946FFF726FE3146FAF72FFD8046D3
:105AD00020464FF07C51FAF781FD01462846FAF73F
